{
  "contractName": "First",
  "abi": [
    {
      "constant": true,
      "inputs": [],
      "name": "mydata",
      "outputs": [
        {
          "name": "",
          "type": "int256"
        }
      ],
      "payable": false,
      "stateMutability": "view",
      "type": "function"
    },
    {
      "constant": false,
      "inputs": [
        {
          "name": "_data",
          "type": "int256"
        }
      ],
      "name": "GetDouble",
      "outputs": [
        {
          "name": "_output",
          "type": "int256"
        }
      ],
      "payable": false,
      "stateMutability": "nonpayable",
      "type": "function"
    }
  ],
  "bytecode": "0x608060405234801561001057600080fd5b5060fd8061001f6000396000f3006080604052600436106049576000357c0100000000000000000000000000000000000000000000000000000000900463ffffffff1680631d24b7e914604e5780636f18a95f146076575b600080fd5b348015605957600080fd5b50606060b4565b6040518082815260200191505060405180910390f35b348015608157600080fd5b50609e6004803603810190808035906020019092919050505060ba565b6040518082815260200191505060405180910390f35b60005481565b6000600382026000819055506003820290509190505600a165627a7a72305820bd480cde492973e1b882f2797d6e5235091aacc23e72da61c887e224664572810029",
  "source": "pragma solidity ^0.4.17;\ncontract First \n{\n\tint public mydata;\n\tfunction GetDouble(int _data) public returns (int _output) \n\t{\n\t\tmydata = _data * 3;\n\t\treturn _data * 3;\n\t}\n}\n",
  "sourcePath": "/home/shahzad/contract2/contracts/first.sol",
  "compiler": {
    "name": "solc",
    "version": "0.4.24+commit.e67f0147.Emscripten.clang"
  },
  "schemaVersion": "2.0.1",
  "updatedAt": "2018-08-13T10:10:07.228Z"
}