{
  "contractName": "Lucas",
  "abi": [
    {
      "constant": false,
      "inputs": [
        {
          "name": "n",
          "type": "uint256"
        }
      ],
      "name": "generateLuc",
      "outputs": [
        {
          "name": "",
          "type": "string"
        }
      ],
      "payable": false,
      "stateMutability": "nonpayable",
      "type": "function"
    },
    {
      "constant": true,
      "inputs": [],
      "name": "HelloWorld",
      "outputs": [
        {
          "name": "",
          "type": "string"
        }
      ],
      "payable": false,
      "stateMutability": "pure",
      "type": "function"
    }
  ],
  "bytecode": "0x608060405234801561001057600080fd5b50610337806100206000396000f30060806040526004361061004c576000357c0100000000000000000000000000000000000000000000000000000000900463ffffffff1680634044833c146100515780637fffb7bd146100f7575b600080fd5b34801561005d57600080fd5b5061007c60048036038101908080359060200190929190505050610187565b6040518080602001828103825283818151815260200191508051906020019080838360005b838110156100bc5780820151818401526020810190506100a1565b50505050905090810190601f1680156100e95780820380516001836020036101000a031916815260200191505b509250505060405180910390f35b34801561010357600080fd5b5061010c6102b2565b6040518080602001828103825283818151815260200191508051906020019080838360005b8381101561014c578082015181840152602081019050610131565b50505050905090810190601f1680156101795780820380516001836020036101000a031916815260200191505b509250505060405180910390f35b606060008060029080600181540180825580915050906001820390600052602060002001600090919290919091505550600060019080600181540180825580915050906001820390600052602060002001600090919290919091505550600290505b8281101561027457600061023e60006002840381548110151561020857fe5b906000526020600020015460006001850381548110151561022557fe5b90600052602060002001546102ef90919063ffffffff16565b908060018154018082558091505090600182039060005260206000200160009091929091909150555080806001019150506101e9565b6040805190810160405280600b81526020017f48656c6c6f207468657265000000000000000000000000000000000000000000815250915050919050565b60606040805190810160405280600b81526020017f48656c6c6f20576f726c64000000000000000000000000000000000000000000815250905090565b6000818301905082811015151561030257fe5b809050929150505600a165627a7a72305820cedb674cb0924110ca8049ed6ae20e23f417c853f8f638e836caf22c95869d2a0029",
  "source": "pragma solidity ^0.4.22;\n\n//import \"github.com/OpenZeppelin/openzeppelin-solidity/contracts/math/SafeMath.sol\";\nimport \"../node_modules/openzeppelin-solidity/contracts/math/SafeMath.sol\";\n\ncontract Lucas {\n   using SafeMath for uint; \n   \n   uint[] lucseries;\n   \n   function generateLuc(uint n) public returns (string)  {\n   \n     lucseries.push(2);\n     lucseries.push(1);\n   \n     for (uint i=2; i < n ; i++) {\n        lucseries.push(lucseries[i-1].add( lucseries[i-2]));\n     }\n    \n     return \"Hello there\";\n   }\n\n\n  function HelloWorld() pure public returns (string) {\n    return \"Hello World\";\n  }\n\n}\n",
  "sourcePath": "/home/shahzad/contract2/contracts/safemath.sol",
  "compiler": {
    "name": "solc",
    "version": "0.4.24+commit.e67f0147.Emscripten.clang"
  },
  "schemaVersion": "2.0.1",
  "updatedAt": "2018-08-13T10:10:07.228Z"
}