{
  "contractName": "PullPaymentTest",
  "abi": [
    {
      "constant": true,
      "inputs": [],
      "name": "totalPayments",
      "outputs": [
        {
          "name": "",
          "type": "uint256"
        }
      ],
      "payable": false,
      "stateMutability": "view",
      "type": "function"
    },
    {
      "constant": true,
      "inputs": [
        {
          "name": "",
          "type": "address"
        }
      ],
      "name": "payments",
      "outputs": [
        {
          "name": "",
          "type": "uint256"
        }
      ],
      "payable": false,
      "stateMutability": "view",
      "type": "function"
    },
    {
      "payable": true,
      "stateMutability": "payable",
      "type": "fallback"
    },
    {
      "anonymous": false,
      "inputs": [
        {
          "indexed": false,
          "name": "dest",
          "type": "address"
        },
        {
          "indexed": false,
          "name": "amount",
          "type": "uint256"
        }
      ],
      "name": "PaymentReceivedEvent",
      "type": "event"
    },
    {
      "anonymous": false,
      "inputs": [
        {
          "indexed": false,
          "name": "amount",
          "type": "uint256"
        },
        {
          "indexed": false,
          "name": "totalPayments",
          "type": "uint256"
        }
      ],
      "name": "AsyncPaymentEventSet",
      "type": "event"
    },
    {
      "anonymous": false,
      "inputs": [
        {
          "indexed": false,
          "name": "dest",
          "type": "address"
        },
        {
          "indexed": false,
          "name": "amount",
          "type": "uint256"
        }
      ],
      "name": "PaymentSendEvent",
      "type": "event"
    },
    {
      "constant": true,
      "inputs": [],
      "name": "HelloWorld",
      "outputs": [
        {
          "name": "",
          "type": "string"
        }
      ],
      "payable": false,
      "stateMutability": "pure",
      "type": "function"
    },
    {
      "constant": false,
      "inputs": [
        {
          "name": "dest",
          "type": "address"
        },
        {
          "name": "amount",
          "type": "uint256"
        }
      ],
      "name": "asynMarkPayment",
      "outputs": [],
      "payable": false,
      "stateMutability": "nonpayable",
      "type": "function"
    },
    {
      "constant": false,
      "inputs": [],
      "name": "withdrawPayments",
      "outputs": [],
      "payable": false,
      "stateMutability": "nonpayable",
      "type": "function"
    }
  ],
  "bytecode": "0x608060405234801561001057600080fd5b5061059e806100206000396000f30060806040526004361061006c576000357c0100000000000000000000000000000000000000000000000000000000900463ffffffff1680625b4487146100d95780636103d70b146101045780637fffb7bd1461011b578063ad57a664146101ab578063e2982c21146101f8575b7f740b635af09b3e7bf1aa58972f58962764e52dc5778bb008bece7ea80b4bac783334604051808373ffffffffffffffffffffffffffffffffffffffff1673ffffffffffffffffffffffffffffffffffffffff1681526020018281526020019250505060405180910390a1005b3480156100e557600080fd5b506100ee61024f565b6040518082815260200191505060405180910390f35b34801561011057600080fd5b50610119610255565b005b34801561012757600080fd5b506101306103e7565b6040518080602001828103825283818151815260200191508051906020019080838360005b83811015610170578082015181840152602081019050610155565b50505050905090810190601f16801561019d5780820380516001836020036101000a031916815260200191505b509250505060405180910390f35b3480156101b757600080fd5b506101f6600480360381019080803573ffffffffffffffffffffffffffffffffffffffff16906020019092919080359060200190929190505050610424565b005b34801561020457600080fd5b50610239600480360381019080803573ffffffffffffffffffffffffffffffffffffffff169060200190929190505050610473565b6040518082815260200191505060405180910390f35b60015481565b6000803391506000808373ffffffffffffffffffffffffffffffffffffffff1673ffffffffffffffffffffffffffffffffffffffff168152602001908152602001600020549050600081141515156102ac57600080fd5b803073ffffffffffffffffffffffffffffffffffffffff1631101515156102d257600080fd5b6102e78160015461048b90919063ffffffff16565b60018190555060008060008473ffffffffffffffffffffffffffffffffffffffff1673ffffffffffffffffffffffffffffffffffffffff168152602001908152602001600020819055508173ffffffffffffffffffffffffffffffffffffffff166108fc829081150290604051600060405180830381858888f19350505050158015610377573d6000803e3d6000fd5b507f4dc921c3e2c1aacde365940c966e59b3f086e6ce61e62844495098f5512102b08282604051808373ffffffffffffffffffffffffffffffffffffffff1673ffffffffffffffffffffffffffffffffffffffff1681526020018281526020019250505060405180910390a15050565b60606040805190810160405280600b81526020017f48656c6c6f20576f726c64000000000000000000000000000000000000000000815250905090565b61042e82826104a4565b7fc3a2e855b8e30d7e79126fc0fddf1162d5530e3d001a846212222ff1bf999d0781600154604051808381526020018281526020019250505060405180910390a15050565b60006020528060005260406000206000915090505481565b600082821115151561049957fe5b818303905092915050565b6104f5816000808573ffffffffffffffffffffffffffffffffffffffff1673ffffffffffffffffffffffffffffffffffffffff1681526020019081526020016000205461055690919063ffffffff16565b6000808473ffffffffffffffffffffffffffffffffffffffff1673ffffffffffffffffffffffffffffffffffffffff1681526020019081526020016000208190555061054c8160015461055690919063ffffffff16565b6001819055505050565b6000818301905082811015151561056957fe5b809050929150505600a165627a7a72305820b07fe516a476d93a7e210e9e1fa54c1ab58e40bf08a7ef38b5e156e5faf673010029",
  "source": "pragma solidity ^0.4.22;\n\nimport \"../node_modules/openzeppelin-solidity/contracts/math/SafeMath.sol\";\n\ncontract PullPaymentTest{\n  using SafeMath for uint256;\n\n  event PaymentReceivedEvent(address dest, uint256 amount);  \n  event AsyncPaymentEventSet(uint256 amount, uint256 totalPayments);\n  event PaymentSendEvent(address dest, uint256 amount);  \n\n\n  function HelloWorld() pure public returns (string) {\n    \treturn \"Hello World\";\n  }\n\n  function () public payable { \n\temit PaymentReceivedEvent(msg.sender, msg.value);\n  }\n\n\n  function asynMarkPayment (address dest, uint256 amount) public {\n\tasyncSend(dest, amount);\n\temit AsyncPaymentEventSet(amount, totalPayments);\n  }\n\n\n\n  \n\n  mapping(address => uint256) public payments;\n  uint256 public totalPayments;\n\n  /**\n  * @dev Withdraw accumulated balance, called by payee.\n  */\n  function withdrawPayments() public {\n    address payee = msg.sender;\n    uint256 payment = payments[payee];\n\n    require(payment != 0);\n    require(address(this).balance >= payment);\n\n    totalPayments = totalPayments.sub(payment);\n    payments[payee] = 0;\n\n    payee.transfer(payment);\n    emit PaymentSendEvent(payee, payment);\n  }\n\n  /**\n  * @dev Called by the payer to store the sent amount as credit to be pulled.\n  * @param dest The destination address of the funds.\n  * @param amount The amount to transfer.\n  */\n  function asyncSend(address dest, uint256 amount) internal {\n    payments[dest] = payments[dest].add(amount);\n    totalPayments = totalPayments.add(amount);\n  }\n\n\n}\n\n",
  "sourcePath": "/home/shahzad/contract2/contracts/PullPaymentTest.sol",
  "compiler": {
    "name": "solc",
    "version": "0.4.24+commit.e67f0147.Emscripten.clang"
  },
  "schemaVersion": "2.0.1",
  "updatedAt": "2018-08-16T09:25:01.038Z"
}