{
  "contractName": "Second",
  "abi": [
    {
      "constant": true,
      "inputs": [],
      "name": "_data",
      "outputs": [
        {
          "name": "",
          "type": "int256"
        }
      ],
      "payable": false,
      "stateMutability": "view",
      "type": "function"
    },
    {
      "inputs": [
        {
          "name": "_first",
          "type": "address"
        }
      ],
      "payable": false,
      "stateMutability": "nonpayable",
      "type": "constructor"
    },
    {
      "constant": false,
      "inputs": [],
      "name": "SetData",
      "outputs": [],
      "payable": false,
      "stateMutability": "nonpayable",
      "type": "function"
    }
  ],
  "bytecode": "0x608060405234801561001057600080fd5b5060405160208061022283398101806040528101908080519060200190929190505050806000806101000a81548173ffffffffffffffffffffffffffffffffffffffff021916908373ffffffffffffffffffffffffffffffffffffffff1602179055505061019f806100836000396000f30060806040526004361061004c576000357c0100000000000000000000000000000000000000000000000000000000900463ffffffff16806368beab3f146100515780636ca89d1a1461007c575b600080fd5b34801561005d57600080fd5b50610066610093565b6040518082815260200191505060405180910390f35b34801561008857600080fd5b50610091610099565b005b60015481565b60008060009054906101000a900473ffffffffffffffffffffffffffffffffffffffff1690508073ffffffffffffffffffffffffffffffffffffffff16636f18a95f60156040518263ffffffff167c010000000000000000000000000000000000000000000000000000000002815260040180828152602001915050602060405180830381600087803b15801561012f57600080fd5b505af1158015610143573d6000803e3d6000fd5b505050506040513d602081101561015957600080fd5b8101908080519060200190929190505050600181905550505600a165627a7a723058204d3380ee1d76b271703ce1bde97485a32ebbdb16330e7ccdba9b35364a0bdc750029",
  "source": "pragma solidity ^0.4.17;\nimport \"./first.sol\";\n\ncontract Second \n{\n\taddress firstAddress;\n\tint public _data;\n\tfunction Second(address _first) public {\n\t\tfirstAddress = _first;\n\t}\n\t\n\tfunction SetData() public {\n\t\tFirst h = First(firstAddress);\n\t\t_data = h.GetDouble(21);\n\t}\n}\n",
  "sourcePath": "/home/shahzad/contract2/contracts/second.sol",
  "compiler": {
    "name": "solc",
    "version": "0.4.24+commit.e67f0147.Emscripten.clang"
  },
  "schemaVersion": "2.0.1",
  "updatedAt": "2018-08-13T10:10:07.229Z"
}