{
  "contractName": "SimpleTest",
  "abi": [
    {
      "constant": true,
      "inputs": [],
      "name": "currentInt",
      "outputs": [
        {
          "name": "",
          "type": "uint8"
        }
      ],
      "payable": false,
      "stateMutability": "view",
      "type": "function"
    },
    {
      "constant": true,
      "inputs": [],
      "name": "currentString",
      "outputs": [
        {
          "name": "",
          "type": "string"
        }
      ],
      "payable": false,
      "stateMutability": "view",
      "type": "function"
    },
    {
      "inputs": [
        {
          "name": "cs",
          "type": "string"
        },
        {
          "name": "ci",
          "type": "uint8"
        }
      ],
      "payable": false,
      "stateMutability": "nonpayable",
      "type": "constructor"
    },
    {
      "constant": false,
      "inputs": [
        {
          "name": "cs",
          "type": "string"
        },
        {
          "name": "ci",
          "type": "uint8"
        }
      ],
      "name": "setCurrentData",
      "outputs": [],
      "payable": false,
      "stateMutability": "nonpayable",
      "type": "function"
    },
    {
      "constant": true,
      "inputs": [],
      "name": "getCurrentData",
      "outputs": [
        {
          "name": "",
          "type": "string"
        }
      ],
      "payable": false,
      "stateMutability": "view",
      "type": "function"
    }
  ],
  "bytecode": "0x608060405234801561001057600080fd5b506040516105b53803806105b583398101806040528101908080518201929190602001805190602001909291905050508160009080519060200190610056929190610079565b5080600160006101000a81548160ff021916908360ff160217905550505061011e565b828054600181600116156101000203166002900490600052602060002090601f016020900481019282601f106100ba57805160ff19168380011785556100e8565b828001600101855582156100e8579182015b828111156100e75782518255916020019190600101906100cc565b5b5090506100f591906100f9565b5090565b61011b91905b808211156101175760008160009055506001016100ff565b5090565b90565b6104888061012d6000396000f300608060405260043610610062576000357c0100000000000000000000000000000000000000000000000000000000900463ffffffff1680630875f513146100675780636416dea614610098578063770b54141461010e578063e7ae84461461019e575b600080fd5b34801561007357600080fd5b5061007c61022e565b604051808260ff1660ff16815260200191505060405180910390f35b3480156100a457600080fd5b5061010c600480360381019080803590602001908201803590602001908080601f0160208091040260200160405190810160405280939291908181526020018383808284378201915050505050509192919290803560ff169060200190929190505050610241565b005b34801561011a57600080fd5b50610123610277565b6040518080602001828103825283818151815260200191508051906020019080838360005b83811015610163578082015181840152602081019050610148565b50505050905090810190601f1680156101905780820380516001836020036101000a031916815260200191505b509250505060405180910390f35b3480156101aa57600080fd5b506101b3610319565b6040518080602001828103825283818151815260200191508051906020019080838360005b838110156101f35780820151818401526020810190506101d8565b50505050905090810190601f1680156102205780820380516001836020036101000a031916815260200191505b509250505060405180910390f35b600160009054906101000a900460ff1681565b81600090805190602001906102579291906103b7565b5080600160006101000a81548160ff021916908360ff1602179055505050565b606060008054600181600116156101000203166002900480601f01602080910402602001604051908101604052809291908181526020018280546001816001161561010002031660029004801561030f5780601f106102e45761010080835404028352916020019161030f565b820191906000526020600020905b8154815290600101906020018083116102f257829003601f168201915b5050505050905090565b60008054600181600116156101000203166002900480601f0160208091040260200160405190810160405280929190818152602001828054600181600116156101000203166002900480156103af5780601f10610384576101008083540402835291602001916103af565b820191906000526020600020905b81548152906001019060200180831161039257829003601f168201915b505050505081565b828054600181600116156101000203166002900490600052602060002090601f016020900481019282601f106103f857805160ff1916838001178555610426565b82800160010185558215610426579182015b8281111561042557825182559160200191906001019061040a565b5b5090506104339190610437565b5090565b61045991905b8082111561045557600081600090555060010161043d565b5090565b905600a165627a7a72305820a63fc6e0ff46d030fa44ce5e29916518a36f2f6caed92ffe68d745af3a06fea50029",
  "source": "pragma solidity ^0.4.18;\n\ncontract SimpleTest {\n    \n  string public currentString;\n  uint8 public currentInt;\n\n  function SimpleTest(string cs, uint8 ci) public {\n    currentString = cs;\n    currentInt = ci;\n  }\n  \n\n  function setCurrentData(string cs, uint8 ci) public {\n    currentString = cs;\n    currentInt = ci;\n  }\n\n\n  function getCurrentData() view public returns (string)\n  {\n     return currentString;\n  }\n  \n\n}\n",
  "sourcePath": "/home/shahzad/contract2/contracts/SimpleTest.sol",
  "compiler": {
    "name": "solc",
    "version": "0.4.24+commit.e67f0147.Emscripten.clang"
  },
  "schemaVersion": "2.0.1",
  "updatedAt": "2018-08-13T10:10:07.225Z"
}